:100000000C945E000C9486000C9486000C94860080
:100010000C9486000C9486000C9486000C94860048
:100020000C9486000C9486000C9486000C94860038
:100030000C9486000C9486000C9486000C94860028
:100040000C94EF050C9486000C945E040C94380418
:100050000C9486000C9486000C9486000C94860008
:100060000C9486000C948600000000080002010039
:100070000003040700000000000000000000000072
:10008000250028002B0000000000240027002A0083
:10009000040404040404040402020202020203032E
:1000A0000303030301020408102040800102040836
:1000B0001020010204081020570DF20C11241FBE5D
:1000C000CFEFD8E0DEBFCDBF23E0A6E0B2E001C0B5
:1000D0001D92A330B207E1F712E0A0E0B1E0E8E63C
:1000E000F9E202C005900D92A630B107D9F710E0F1
:1000F000CDE5D0E004C02197FE010E94BE0FCC35B3
:10010000D107C9F70E949C090C94A7140C94000015
:100110000895CF92DF92EF92FF920F931F93CF93A8
:10012000DF936C017A018B01C0E0D0E0CE15DF05D2
:1001300081F0D8016D918D01D601ED91FC91019076
:10014000F081E02DC6010995892B11F02196EECFA3
:100150007E01C701DF91CF911F910F91FF90EF902A
:10016000DF90CF900895FC01538D448D252F30E012
:10017000842F90E0821B930B541710F0CF960895B4
:1001800001970895FC01918D828D981761F0828D01
:10019000DF01A80FB11D5D968C91928D9F5F9F73BB
:1001A000928F90E008958FEF9FEF0895FC01918D5D
:1001B000828D981731F0828DE80FF11D858D90E0CA
:1001C00008958FEF9FEF0895FC01918D228D892F67
:1001D00090E0805C9F4F821B91098F73992708954F
:1001E00081E192E00E94E40021E0892B09F420E003
:1001F000822F0895FC01848DDF01A80FB11DA35A41
:10020000BF4F2C91848D90E001968F739927848F36
:10021000A689B7892C93A089B1898C918370806459
:100220008C93938D848D981306C00288F389E02DFA
:1002300080818F7D80830895EF92FF920F931F93AB
:10024000CF93DF93EC0181E0888F9B8D8C8D981389
:1002500005C0E889F989808185FD26C0F62E0B8DC1
:1002600010E00F5F1F4F0F731127E02E8C8DE812E7
:100270000CC00FB607FCFACFE889F989808185FFA9
:10028000F5CFCE010E94FA00F1CF8B8DFE01E80F71
:10029000F11DE35AFF4FF0829FB7F8940B8FEA8964
:1002A000FB89808180620AC09FB7F894EE89FF893C
:1002B0006083E889F98980818370806480839FBF2F
:1002C00081E090E0DF91CF911F910F91FF90EF902F
:1002D0000895CF93DF93EC01888D8823C9F0EA89D4
:1002E000FB89808185FD05C0A889B9898C9186FD2F
:1002F0000FC00FB607FCF5CF808185FFF2CFA8892C
:10030000B9898C9185FFEDCFCE010E94FA00E7CF2D
:10031000DF91CF9108953FB7F89480910B029091AF
:100320000C02A0910D02B0910E0226B5A89B05C04B
:100330002F3F19F00196A11DB11D3FBFBA2FA92F64
:10034000982F8827820F911DA11DB11DBC01CD01E1
:1003500042E0660F771F881F991F4A95D1F70895CD
:1003600080E090E00895CF93DF93EC01888199813C
:10037000009711F00E945C10198218821D821C8265
:100380001B821A82DF91CF9108950E94AB110F93C7
:100390001F93CF93DF93EC0188819981009729F017
:1003A0002A813B812617370788F48B016F5F7F4FC7
:1003B0000E94E510009761F0998388831B830A836C
:1003C0002C813D81232B11F4FC01108281E001C0BE
:1003D00080E0DF91CF911F910F910895EF92FF92EE
:1003E0000F931F93CF93DF936115710511F480E094
:1003F0001CC041155105C1F07B01EC018C819D8130
:100400008A01080F191FB801CE010E94C701882375
:1004100071F3288139818C819D81B701820F931FEF
:100420000E94C2111D830C8381E0DF91CF911F9147
:100430000F91FF90EF900895CF93DF9300D0CDB749
:10044000DEB769831A8241E050E0BE016F5F7F4FE3
:100450000E94EE010F900F90DF91CF910895EF92DF
:10046000FF920F931F93CF93DF93EC017B018A01DF
:10047000BA010E94C701811104C0CE010E94B301DC
:1004800007C01D830C83B701888199810E94C21126
:10049000CE01DF91CF911F910F91FF90EF900895C2
:1004A000CF93DF93DC011496ED91FC9115976E17B5
:1004B0007F0730F54115510519F1DF01A61BB70B78
:1004C0009A01A417B50708F49D01DB01EC018881AE
:1004D0009981E21BF30BFD83EC83AF01461B570BA5
:1004E000260F371FBC01620F731F8A0F9B1F0E94CC
:1004F000D711E881F9818C819D81E80FF91F108265
:10050000DF91CF910895FC0124813581232B31F4B3
:1005100021E061157105A1F0FB0108C0FC0180819B
:1005200091816115710531F421E0FC0180818823FE
:1005300039F005C00E94B91121E0892B09F020E0B3
:10054000822F0895CF93DF93EC016115710561F05F
:10055000FB0101900020E9F73197AF01461B570BD3
:100560000E94EE01811103C0CE010E94B301CE01B1
:10057000DF91CF910895CF93DF93EC01FB0144818C
:100580005581608171810E94EE01811103C0CE010D
:100590000E94B301CE01DF91CF910895CF93DF93F5
:1005A000EC016115710559F0FB0101900020E9F79C
:1005B0003197AF01461B570B0E942F0202C00E94C9
:1005C000B301CE01DF91CF910895CF93DF93EC017A
:1005D000FB018617970761F06081718161157105D4
:1005E00029F0448155810E942F0202C00E94B3016C
:1005F000CE01DF91CF910895FC0180819181009718
:1006000011F00C945C100895FC0111821082138289
:100610001282158214820C94E502CF93DF93EC01D1
:100620000E940403CE01DF91CF910895FC01118255
:10063000108213821282158214826115710551F0A5
:10064000FB0101900020E9F73197AF01461B570BE2
:100650000C942F0208950F931F93CF93DF93CDB780
:10066000DEB762970FB6F894DEBF0FBECDBF8091A4
:100670000F0290911002181619060CF168E271E051
:10068000CE0101960E941603CE0101960E948308B6
:10069000CE0101960E94FC0261E371E0CE01019659
:1006A0000E941603CE0101960E948308CE01019696
:1006B0000E94FC021092100210920F02C0C0813002
:1006C000910509F05BC063E371E084EB92E00E9466
:1006D0008302882349F080910001909101010196E5
:1006E000909301018093000169E371E084EB92E053
:1006F0000E948302882349F08091000190910101BA
:10070000019790930101809300016EE371E0CE01A7
:1007100001960E941603CE0101960E948308CE0125
:1007200001960E94FC026091000170910101CE01CE
:1007300001960E94C506BE016F5F7F4FCE010796EE
:100740000E94040365E471E0CE0107960E94A202B4
:10075000BC01CE010D960E940403CE010D960E94AD
:100760008308CE010D960E94FC02CE0107960E94DE
:10077000FC02CE0101960E94FC0261C0029709F0C2
:100780005EC069E471E0CE0101960E941603CE01BD
:1007900001960E948308CE0101960E94FC0260919E
:1007A000020170910301CE0101960E94C506BE01AF
:1007B0006F5F7F4FCE0107960E94040369E571E0E9
:1007C000CE0107960E94A202BC01CE010D960E94A6
:1007D0000403CE010D960E948308CE010D960E945F
:1007E000FC02CE0107960E94FC02CE0101960E94F7
:1007F000FC02009102011091030104361105F8F486
:1008000063E371E084EB92E00E948302882331F07D
:100810000F5F1F4F109303010093020169E371E022
:1008200084EB92E00E948302882349F080910201C8
:1008300090910301019790930301809302016296C6
:100840000FB6F894DEBF0FBECDBFDF91CF911F91E1
:100850000F910895DB0114964D915C9115976D9160
:100860007C91DC01ED91FC910280F381E02D0994F3
:100870001F920F920FB60F9211242F933F934F9315
:100880005F936F937F938F939F93AF93BF93EF93F8
:10089000FF9381E192E00E94FA00FF91EF91BF91F6
:1008A000AF919F918F917F916F915F914F913F9108
:1008B0002F910F900FBE0F901F9018951F920F92BF
:1008C0000FB60F9211242F938F939F93EF93FF9363
:1008D000E0912102F09122028081E0912702F091C3
:1008E000280282FD12C0908180912A028F5F8F734F
:1008F00020912B02821751F0E0912A02F0E0EF5E86
:10090000FD4F958F80932A0201C08081FF91EF9166
:100910009F918F912F910F900FBE0F901F90189560
:1009200090E0FC01E859FF4F2491FC01EC55FF4F8A
:100930003491FC01E057FF4FE491EE2309F43CC0F1
:10094000222339F1233091F038F42130A9F02230FC
:1009500001F584B58F7D12C0273091F02830A1F0C9
:100960002430B9F4809180008F7D03C08091800095
:100970008F77809380000DC084B58F7784BD09C0C8
:100980008091B0008F7703C08091B0008F7D8093FD
:10099000B000F0E0EE0FFF1FE458FF4FA591B491B7
:1009A0009FB7F894611104C08C913095382302C030
:1009B000EC913E2B3C939FBF0895CF93DF93EC01C6
:1009C00060E08E810E94900461E08E810E9490041C
:1009D00060E08E810E9490048BE891E00197F1F72E
:1009E000DF91CF9108952FB7F8946091070270912D
:1009F00008028091090290910A022FBF0895CF92B8
:100A0000DF92EF92FF92CF93C1E081E192E00E94EA
:100A1000E400892B09F4D7C08091E0029091E102B3
:100A2000892B89F40E94F3046093F7027093F80213
:100A30008093F9029093FA0262E371E085EE92E00E
:100A40000E94CE0216C0C090F702D090F802E0904B
:100A5000F902F090FA028CE2C80E81E0D81EE11C87
:100A6000F11C0E94F304C616D706E806F90608F43E
:100A700089C081E192E00E94C200682F8091E0026B
:100A80009091E1029C012F5F3F4F3093E102209350
:100A9000E0028330910540F441E0663609F440E01D
:100AA0002430310539F404C024303105E1F440E04C
:100AB000653611F44423B9F01092E1021092E0027D
:100AC0001092E3021092E20262E371E085EE92E09E
:100AD0000E94CE0262E371E08BEE92E00E94CE02B1
:100AE0001092E40292CF0497029720F51092E4024C
:100AF0008BEE92E00E941C028091E0029091E10254
:100B0000069709F082CF40E150E060E070E080910C
:100B1000EB029091EC020E94E40D6A5F7F4F7093AC
:100B2000E3026093E20262E371E08BEE92E00E94E6
:100B3000CE026BCF2730310508F467CF8091E202F7
:100B40009091E3022817390738F41092E40285EEF9
:100B500092E00E941C0259CF9093E1028093E00240
:100B6000892B09F452CF85EE92E00E941C0210926C
:100B7000E1021092E0021092E3021092E202C093AE
:100B8000E40243CF62E371E08BEE92E00E94CE027A
:100B90001092E1021092E0021092E3021092E2023F
:100BA00062E371E085EE92E00E94CE021092E402D0
:100BB0000E94F3046093F7027093F8028093F902A5
:100BC0009093FA0256CFCF91FF90EF90DF90CF90A5
:100BD00008950E94F00081110C94FF0408951F9263
:100BE0000F920FB60F9211242F933F938F939F93E1
:100BF000AF93BF938091070290910802A0910902E0
:100C0000B0910A023091060223E0230F2D3720F421
:100C10000196A11DB11D05C026E8230F0296A11D56
:100C2000B11D209306028093070290930802A093BF
:100C30000902B0930A0280910B0290910C02A091DC
:100C40000D02B0910E020196A11DB11D80930B0201
:100C500090930C02A0930D02B0930E02BF91AF913E
:100C60009F918F913F912F910F900FBE0F901F90EA
:100C70001895CF92DF92EF92FF920F931F93CF932D
:100C8000DF936C017C0187E0E80EF11CC0E0D0E04E
:100C9000062F10E0B8010C2E02C0759567950A94D6
:100CA000E2F76170F70181917F010E949004219623
:100CB000C430D10579F7C601DF91CF911F910F9113
:100CC000FF90EF90DF90CF900C94DD04CF92DF92F5
:100CD000EF92FF920F931F93CF93DF93EC01F62EC9
:100CE000642F8C810E9490048D818F3F19F060E009
:100CF0000E9490048F850F2D10E084FF25C06E01A7
:100D000087E0C80ED11CE12CF12CB8010E2C02C0DA
:100D1000759567950A94E2F76170F60181916F010C
:100D20000E949004FFEFEF1AFF0A88E0E816F10432
:100D300061F7CE01DF91CF911F910F91FF90EF905E
:100D4000DF90CF900C94DD04B80184E07595679531
:100D50008A95E1F7CE010E9439066F2DCE01DF9111
:100D6000CF911F910F91FF90EF90DF90CF900C9457
:100D7000390641E00E94660681E090E0089540E077
:100D8000682F8EEB92E00C9466060F931F93CF931F
:100D9000DF93CDB7DEB762970FB6F894DEBF0FBE14
:100DA000CDBF8C01CB01F801118210821382128217
:100DB000158214824AE0BE016F5F7F4F0E94030FCD
:100DC000BE016F5F7F4FC8010E94CE0262960FB6D0
:100DD000F894DEBF0FBECDBFDF91CF911F910F9171
:100DE000089581E00E94BF068BE39FE10197F1F730
:100DF000089590E0FC01EC55FF4F2491FC01E05771
:100E0000FF4F8491882399F090E0880F991FFC018F
:100E1000EA57FF4FA591B491FC01E458FF4F85912B
:100E200094918FB7F894EC91E22BEC938FBF0895D7
:100E3000CF93DF93823028F09091CD029860909309
:100E4000CD028093D1021092D20280E48093D3022B
:100E500080E18093D40280E58093D5028091C20224
:100E60000E94F9068091C3028F3F11F00E94F9069B
:100E70008091C4020E94F906CEEBD2E09E012E5B67
:100E800032408091CD0284FD03C084E090E002C036
:100E900088E090E021962817390724F48E810E947B
:100EA000F906ECCF8BE39DE00197F1F760E08091CC
:100EB000C2020E94900460E08091C4020E949004EB
:100EC0008091C3028F3F19F060E00E9490048091EE
:100ED000CD0284FD20C063E08EEB92E00E943906D3
:100EE000CBE4D6E4CE010197F1F763E08EEB92E01C
:100EF0000E9439062197F1F763E08EEB92E00E94A1
:100F0000390683E592E00197F1F762E08EEB92E01B
:100F10000E94390615C080620E94BF068BE496E4E9
:100F20000197F1F78091CD0280620E94BF0683E5B0
:100F300092E00197F1F78091CD0280620E94BF0696
:100F40008091CD0280620E94BF0684E08093CE0231
:100F50008CE00E94BF060E94F10682E08093CF02DF
:100F600086E0DF91CF910C94BF06CF93DF93EC0125
:100F700062EB71E00E948302882311F060E023C0DD
:100F800068EA71E0CE010E948302882311F060E0DC
:100F900024C061EA71E0CE010E948302882311F02F
:100FA00060E025C069E971E0CE010E9483028823D8
:100FB00011F060E026C061E971E0CE010E94830279
:100FC000882319F061E08DE01DC068E871E0CE0172
:100FD0000E948302882319F061E08CE013C062E86C
:100FE00071E0CE010E948302882319F061E08BE05A
:100FF00009C06BE771E0CE010E948302882331F0C3
:1010000061E083E0DF91CF910C949004DF91CF9168
:1010100008950F931F93CF93DF9300D000D000D09B
:10102000CDB7DEB78C0165EE72E0CE0101960E946D
:1010300004032D813E81F8018481958128173907A9
:1010400011F589819A8160817181009719F061158C
:101050007105A1F46115710549F0232BB1F0FB0175
:10106000808190E09195819591090AC0009769F07F
:10107000232B59F0FC01808190E002C00E94B9113D
:1010800011E0892B19F010E001C011E0CE010196AA
:101090000E94FC02812F26960FB6F894DEBF0FBE89
:1010A000CDBFDF91CF911F910F9108950F931F93A3
:1010B000CF93DF9300D000D000D0CDB7DEB78C0146
:1010C00061EF72E0CE0101960E940403B801CE01E7
:1010D00001960E94BB0261E072E00E94A202BC0184
:1010E00081EF92E00E94E502CE0101960E94FC028F
:1010F00026960FB6F894DEBF0FBECDBFDF91CF911D
:101100001F910F9108952F923F924F925F926F928D
:101110007F928F929F92AF92BF92CF92DF92EF9287
:10112000FF920F931F93CF93DF93CDB7DEB72C972A
:101130000FB6F894DEBF0FBECDBF8C0163E072E046
:10114000CE0101960E9416034D815E81D80114964E
:101150008D919C91159784179507A0F18D919C9185
:10116000009781F169817A816115710559F10E94B9
:10117000C911892B39F563E072E0CE0107960E9410
:101180001603F801248135814B855C8524173507CA
:1011900098F080819181009779F06F817885611551
:1011A000710551F0241B350B820F931F0E94B9115A
:1011B000FF24F394892B09F0F12CCE0107960E94AD
:1011C000FC0201C0F12CCE0101960E94FC02FF201E
:1011D00099F041E050E060E070E0C8010E945002E8
:1011E000D80114966D917C911597615071094FEF5C
:1011F0005FEFC8010E945002F801448055808FE0E3
:10120000882E912CA12CB12C1201F1E02F1A31085B
:10121000A414B5040CF077C06401841495040CF098
:1012200061018FEFC81AD80A3501CA14DB0410F423
:101230003601650162E371E0CE0101960E9416035A
:10124000D8011496ED90FC9015976E147F04D8F495
:10125000CE14DF0408F47601D801ED91FC911197CA
:10126000EE0DFF1DD08010826D917C91660D771D73
:10127000CE0101960E94CE02F80180819181FC018D
:10128000EE0DFF1DD08261E08AE00E9490040E9472
:10129000F106E1E08091D1028111E0E0E195F0E01A
:1012A000E254FD4F848980680E94BF066EEA72E0B6
:1012B0008EEB92E00E942A04E091D102E23010F419
:1012C000E15001C0E1E0F0E0E254FD4F8489806824
:1012D0000E94BF06BE016F5F7F4F8EEB92E00E94BF
:1012E0002A04BE016F5F7F4F8EEA92E00E94E50202
:1012F000CE0101960E94FC02F0E1AF0EB11C80E12C
:10130000880E911C85CF2C960FB6F894DEBF0FBEC9
:10131000CDBFDF91CF911F910F91FF90EF90DF90A4
:10132000CF90BF90AF909F908F907F906F905F9085
:101330004F903F902F900895CF93DF93CDB7DEB7B6
:1013400065970FB6F894DEBF0FBECDBF789484B515
:10135000826084BD84B5816084BD85B5826085BDB1
:1013600085B5816085BD80916E00816080936E003F
:101370001092810080918100826080938100809131
:1013800081008160809381008091800081608093E2
:1013900080008091B10084608093B1008091B000A2
:1013A00081608093B00080917A00846080937A009D
:1013B00080917A00826080937A0080917A008160C7
:1013C00080937A0080917A00806880937A001092EE
:1013D000C10083E00E94F9068BE00E94F9068DE0CF
:1013E0000E94F9068CE00E94F9068AE00E94F90644
:1013F00061E08AE00E94900482E00E9418070E9447
:101400002B036FEF70E085EE92E00E94C70162E36C
:1014100071E08BEE92E00E94CE0262E371E085EE15
:1014200092E00E94CE0262E371E081EF92E00E94BE
:10143000CE021092E4021092E3021092E2021092A5
:10144000E1021092E0021092F7021092F80210925C
:10145000F9021092FA02E0912102F091220282E058
:101460008083E0911D02F0911E021082E0911F0224
:10147000F09120028FEC808310922902E0912502E6
:10148000F091260286E08083E0912302F09124020D
:10149000808180618083E0912302F0912402808129
:1014A00088608083E0912302F0912402808180682B
:1014B0008083E0912302F091240280818F7D8083DC
:1014C00090E4D92E27EFE22E21E0F22E33E0C32E56
:1014D0008E010D5E1F4FD0927C0080917A00806457
:1014E00080937A0080917A0086FDFCCF809178000D
:1014F00090917900823391051CF463E371E01CC084
:10150000863991051CF46BE571E016C08E3521E03B
:1015100092071CF46EE571E00FC0863222E092075C
:101520001CF469E371E008C08E3E92401CF463E64F
:1015300071E002C06AE671E0CE0101960E941603D6
:101540008091B4029091B502009741F069817A814F
:101550006115710509F033C20E945C1089819A817E
:101560009093B5028093B4028B819C819093B702D3
:101570008093B6028D819E819093B9028093B802C8
:101580001A8219821C821B821E821D82CE01019644
:101590000E94FC026AE671E084EB92E00E94830202
:1015A000B82E0E94F3044090BA025090BB026090A3
:1015B000BC027090BD0224EF420E21E0521E611C5D
:1015C000711C4616570668067906D0F5B11038C06A
:1015D0000E94F3046093BA027093BB028093BC0232
:1015E0009093BD0263E671E084EB92E00E94830277
:1015F000882329F01092100210920F021FC06EE58E
:1016000071E084EB92E00E948302882331F08091A4
:101610000F029091100201960DC06BE571E084EB12
:1016200092E00E948302882349F080910F029091FA
:10163000100201979093100280930F020E942B03D7
:101640000E948B014B015C0182E3482E512C612CDE
:10165000712C0E948B01DC01CB0188199909AA0920
:10166000BB09883E9340A105B10598F381E0481A73
:1016700051086108710898EE890E93E0991EA11C2B
:10168000B11C411451046104710419F78091E40202
:101690001092E402882309F4C3C065EE72E0CE0123
:1016A00001960E9404036FE671E0CE0101960E944C
:1016B0008302B82ECE0101960E94FC02BB2009F4E1
:1016C000B2C06BEB71E0CE0101960E941603CE0111
:1016D00001960E945608CE0101960E94FC0260917C
:1016E000020170910301CE0107960E94C5066EEDBE
:1016F00071E0CE010D960E941603BE01695F7F4F17
:10170000CE010D960E94BB026CED71E00E94A20218
:10171000BC01CE0101960E940403CE0101960E94F5
:101720005608CE0101960E94FC02CE010D960E9441
:10173000FC02CE0107960E94FC02609100017091AC
:101740000101CE0107960E94C50668EE71E0CE0148
:101750000D960E941603BE01695F7F4FCE010D9664
:101760000E94BB026CED71E00E94A202BC01CE019E
:1017700001960E940403CE0101960E945608CE01F4
:1017800001960E94FC02CE010D960E94FC02CE0141
:1017900007960E94FC0261EF72E0CE010D960E9456
:1017A00004038A898F9389898F93FF92EF921F9206
:1017B000CF921F930F930E94E611B801CE010796B6
:1017C0000E9416036CEF71E0CE0101960E94160391
:1017D000BE01695F7F4FCE0101960E94BB02BE0130
:1017E000635F7F4F0E94BB02BC0181E192E00E94D7
:1017F0002A04CE0101960E94FC02CE0107960E94A7
:10180000FC02CE010D960E94FC0262E371E081EFC2
:1018100092E00E94CE020FB6F894DEBF0FBECDBF9D
:101820000E94E90558CE6BE771E0CE0101960E9457
:101830001603CE0101960E940908B82ECE0101962A
:101840000E94FC02BB2019F06BE771E08BC062E8DC
:1018500071E0CE0101960E941603CE0101960E940E
:101860000908B82ECE0101960E94FC02BB2019F097
:1018700062E871E077C068E871E0CE0101960E94ED
:101880001603CE0101960E940908B82ECE010196DA
:101890000E94FC02BB2019F068E871E063C061E9B6
:1018A00071E0CE0101960E941603CE0101960E94BE
:1018B0000908B82ECE0101960E94FC02BB2019F047
:1018C00061E971E04FC069E971E0CE0101960E94C3
:1018D0001603CE0101960E940908B82ECE0101968A
:1018E0000E94FC02BB2019F069E971E03BC061EA8B
:1018F00071E0CE0101960E941603CE0101960E946E
:101900000908B82ECE0101960E94FC02BB2019F0F6
:1019100061EA71E027C068EA71E0CE0101960E9499
:101920001603CE0101960E940908B82ECE01019639
:101930000E94FC02BB2019F068EA71E013C062EB60
:1019400071E0CE0101960E941603CE0101960E941D
:101950000908B82ECE0101960E94FC02BB2069F056
:1019600062EB71E0CE0101960E941603CE01019652
:101970000E94B507CE0101961FC065EE72E0CE0150
:1019800007960E94040362E371E08EEA92E00E94EF
:10199000CE020E94F106BE01695F7F4FCE01019623
:1019A0000E940403CE0101960E948308CE01019695
:1019B0000E94FC02CE0107960E94FC0231CF4091AA
:1019C000B6025091B7022D813E814217530708F4A9
:1019D000C3CD0E94C2118D819E819093B9028093E4
:1019E000B802D2CDCF93DF938EEA92E00E94FC0240
:1019F00084EB92E00E94FC0281EF92E00E94FC02E4
:101A00008BEE92E00E94FC0285EE92E00E94FC02C6
:101A10008091DB029091DC02E091D702F091D80234
:101A2000892B71F10280F381E02DF093D802E093CD
:101A3000D7020190F081E02DC481D581209731F04B
:101A4000CE010E94FC02CE010E945C10E091D70200
:101A5000F091D80280819181009711F00E945C1072
:101A6000E091D702F091D802118210828091DB02BE
:101A70009091DC0201979093DC028093DB02C8CF47
:101A8000C481D581209731F0CE010E94FC02CE01A5
:101A90000E945C108091D7029091D802009721F0AB
:101AA000DF91CF910C945C10DF91CF910895CF938B
:101AB000DF93E1E1F2E01382128288EE93E0A0E08E
:101AC000B0E084839583A683B7838EE091E0918311
:101AD000808385EC90E09587848784EC90E09787FD
:101AE000868780EC90E0918B808B81EC90E0938BEB
:101AF000828B82EC90E0958B848B86EC90E0978BC8
:101B0000868B118E128E138E148EC6EDD2E01E823D
:101B10001D8286E090E00E94C40FFC0111821082B9
:101B200013821282158214829A8389839C838B8309
:101B30008DE093E09987888762E371E085EE92E01B
:101B40000E94160362E371E08BEE92E00E9416039E
:101B500062E371E081EF92E00E941603EEEBF2E0A7
:101B60001382128280E291E09183808388E08483F3
:101B70008FEF858389E0868384E0878385E0808793
:101B800086E0818787E0828713861486158616860D
:101B9000178681E00E9418070E94F3046093BA023E
:101BA0007093BB028093BC029093BD0262E371E02C
:101BB00084EB92E00E94160362E371E08EEA92E009
:101BC000DF91CF910C941603A0E0B0E0EAEEFDE0C7
:101BD0000C94790F5C016B017A016115710519F0A4
:101BE000FB0191838083E114F10429F0C70102977E
:101BF000839708F0E5C0E5012196F5011081812F5A
:101C000090E00E94FA0E892B11F05E01F4CF1D3294
:101C100029F42196F501118101E007C01B3221F45E
:101C2000E5012296F501118100E0E114F10409F1CA
:101C3000F0E1EF16F10429F43FC010E3E114F104E0
:101C400021F128E0E216F10401F154F4E2E0EE168D
:101C5000F10421F5812C912CA12CB0E4BB2E3EC0C7
:101C6000FAE0EF16F10439F020E1E216F104B1F4E4
:101C700030C0103319F1FAE0EF2EF12CACEC8A2EC3
:101C8000982CA82CACE0BA2E29C078E0E72EF12CD5
:101C9000812C912CA12CE0E1BE2E20C060E070E0F0
:101CA00080E090E897010F2C000C440B550B0E942C
:101CB0004B0F49015A0112C0103359F488818F7DAE
:101CC000883509F0BACF19812296026080E1E82EAA
:101CD000F12C812C912CA12C68E0B62E40E060E024
:101CE00070E0CB0127010F2C000C66087708FE017D
:101CF00050ED352E310E29E0231570F42FEB210F16
:101D00002A3118F439EC332E06C02FE9210F2A317D
:101D100018F529EA322E310E232D30E02E153F051D
:101D2000DCF447FD16C086169706A806B90670F0C3
:101D3000A30192010E943B0F630D711D811D911D36
:101D400061307105810520E8920710F04FEF01C066
:101D500041E021961081CBCF202F2170C114D104F6
:101D600071F0442329F02197F601D183C08307C085
:101D700001FF19C02297F601D183C08314C047FF29
:101D800012C0222329F060E070E080E090E804C0F7
:101D90006FEF7FEF8FEF9FE722E230E03093FE029C
:101DA0002093FD0209C0222381F0909580957095C3
:101DB00061957F4F8F4F9F4F462F372F282F12C08F
:101DC00040E030E020E090E00DC097FFF5CF82E2E8
:101DD00090E09093FE028093FD026FEF7FEF8FEF14
:101DE0009FE7EACF642F732F822FCDB7DEB7E1E1F3
:101DF0000C94950F91110C94280F803219F0895092
:101E00008550C8F70895BB274A3031F4992322F44E
:101E1000BDE2909581959F4F0C940F0FBB27FB015E
:101E20005527AA27880F991FAA1FA41710F0A41BD3
:101E300083955051B9F7A05DAA3308F0A95DA1932D
:101E4000009779F7B111B1931192CB010C942B0F3C
:101E5000992788270895DC01FC01672F719177236A
:101E6000E1F7329704C07C916D9370836291AE1755
:101E7000BF07C8F30895DB018F939F930E946D0FF6
:101E8000BF91AF91A29F800D911DA39F900DB29F16
:101E9000900D11240895A1E21A2EAA1BBB1BFD016F
:101EA0000DC0AA1FBB1FEE1FFF1FA217B307E40739
:101EB000F50720F0A21BB30BE40BF50B661F771F91
:101EC000881F991F1A9469F7609570958095909571
:101ED0009B01AC01BD01CF0108950E94AF0FA59FEA
:101EE000900DB49F900DA49F800D911D1124089515
:101EF0002F923F924F925F926F927F928F929F921A
:101F0000AF92BF92CF92DF92EF92FF920F931F9307
:101F1000CF93DF93CDB7DEB7CA1BDB0B0FB6F894B8
:101F2000DEBF0FBECDBF09942A88398848885F84F8
:101F30006E847D848C849B84AA84B984C884DF8069
:101F4000EE80FD800C811B81AA81B981CE0FD11D4D
:101F50000FB6F894DEBF0FBECDBFED010895A29F6E
:101F6000B001B39FC001A39F700D811D1124911D6D
:101F7000B29F700D811D1124911D0895EE0FFF1F5A
:101F80000590F491E02D09940F931F93CF93DF9365
:101F90008230910510F482E090E0E0910103F0912D
:101FA000020320E030E0A0E0B0E0309719F140817A
:101FB00051810281138148175907C8F0841795078A
:101FC00069F4109731F012960C93129713961C93A4
:101FD00027C0009301031093020322C0211531058D
:101FE00019F04217530718F49A01BD01EF01DF0100
:101FF000F801DBCF21153105F9F0281B390B24300E
:10200000310580F48A819B816115710521F0FB0106
:102010009383828304C09093020380930103FE01A3
:10202000329644C0FE01E20FF31F81939193225038
:102030003109398328833AC02091FF02309100038F
:10204000232B41F4209106013091070130930003C6
:102050002093FF02209104013091050121153105E3
:1020600041F42DB73EB74091080150910901241B5E
:10207000350BE091FF02F0910003E217F307A0F4A3
:102080002E1B3F0B2817390778F0AC014E5F5F4FCE
:102090002417350748F04E0F5F1F509300034093FD
:1020A000FF028193919302C0E0E0F0E0CF01DF9165
:1020B000CF911F910F910895CF93DF93009709F46B
:1020C00081C0FC01329713821282A0910103B0916A
:1020D0000203109781F420813181820F931F209198
:1020E000FF02309100032817390751F5F0930003E0
:1020F000E093FF0267C0ED0120E030E0CE17DF077C
:1021000040F44A815B819E0141155105F1F0EA01DD
:10211000F5CFD383C28340815181840F951FC817A7
:10212000D90759F488819981840F951F029691836C
:1021300080838A819B81938382832115310529F4D1
:10214000F0930203E09301033DC0E901FB83EA83BE
:1021500049915991C40FD51FEC17FD0761F4808197
:102160009181840F951F0296E9019983888382816A
:1021700093819B838A83E0E0F0E012968D919C919D
:102180001397009719F0FD01DC01F7CF8D919C9119
:1021900011979D012E5F3F4F820F931F2091FF02E9
:1021A000309100032817390769F4309729F4109209
:1021B00002031092010302C013821282B093000343
:1021C000A093FF02DF91CF910895A0E0B0E0EBEE85
:1021D000F0E10C947C0FEC01009721F4CB010E94FC
:1021E000C40FB4C0FC01E60FF71F9C012250310957
:1021F000E217F30708F4A8C0D9010D911C911197BB
:1022000006171707B0F00530110508F49BC0C80188
:1022100004978617970708F495C002501109061B0A
:10222000170B019311936D937C93CF010E945C1067
:1022300089C05B01A01AB10A4C01800E911EA091C9
:102240000103B0910203612C712CE12CF12C109749
:1022500009F446C08D919C911197A815B905B1F567
:102260006C0142E0C40ED11CCA14DB0478F14C01AD
:102270008A189B08640142E0C40ED11C1296BC90DF
:1022800012971396AC91B5E0CB16D10440F0B28210
:10229000A38391828082D9016D937C9309C00E5FE4
:1022A0001F4F800F911FF90191838083EB2DFA2F2F
:1022B000E114F10431F0D7011396FC93EE931297D9
:1022C00041C0F0930203E09301033CC06816790615
:1022D00008F43C017D0112960D90BC91A02DB7CF62
:1022E0008091FF029091000388169906E1F466162A
:1022F0007706C8F48091040190910501009741F49C
:102300008DB79EB74091080150910901841B950B30
:10231000E817F907C8F4F0930003E093FF02F9010E
:10232000718360830FC0CB010E94C40F7C010097B2
:1023300059F0A801BE010E94B011CE010E945C10AC
:10234000C70104C0CE0102C080E090E0CDB7DEB787
:10235000EEE00C94980F81E090E0F8940C94A714B0
:10236000FB01DC0102C001900D9241505040D8F7B2
:102370000895FB01DC018D91019080190110D9F3C2
:10238000990B0895FB01DC0101900D920020E1F70B
:102390000895FB01DC014150504030F08D910190D7
:1023A000801919F40020B9F7881B990B0895FB01D7
:1023B000DC014150504048F001900D920020C9F7D7
:1023C00001C01D9241505040E0F70895AEE0B0E0EA
:1023D000ECEEF1E10C94860F0D891E898F89988DA2
:1023E00026E02C831A83098397FF02C080E090E8DF
:1023F00001979E838D83AE01455E5F4F698D7A8D17
:10240000CE0101960E9416124D815E8157FD0AC0D1
:102410002F813885421753070CF49A01F801E20F17
:10242000F31F10822E96E4E00C94A20FABE0B0E014
:10243000ECE1F2E10C94780F6C017B018A01FC0164
:1024400017821682838181FFCCC1CE0101963C01A7
:10245000F6019381F70193FD859193FF81917F01AF
:10246000882309F4BAC1853239F493FD859193FF2D
:1024700081917F01853229F4B60190E00E940D140C
:10248000E7CF912C212C312CFFE1F315D8F08B32C2
:1024900079F038F4803279F08332A1F4232D206171
:1024A0001DC08D3261F0803369F4232D216016C088
:1024B000832D8260382EE32DE4603E2E2AC0F32D5A
:1024C000F8601DC037FC2DC020ED280F2A3040F0E9
:1024D0008E32B9F436FC81C1232D2064322E19C00E
:1024E00036FE06C08AE0989E200D1124922E11C05F
:1024F000EAE02E9E200D1124222EF32DF0623F2EB5
:1025000008C08C3621F4832D8068382E02C08836AE
:1025100041F4F70193FD859193FF81917F01811132
:10252000B3CF982F9F7D9554933028F40C5F1F4FA5
:102530009FE399830DC0833631F0833771F0833583
:1025400009F059C021C0F801808189830E5F1F4FB7
:1025500088248394912C530113C02801F2E04F0E7C
:10256000511CF801A080B18036FE03C0692D70E0D7
:1025700002C06FEF7FEFC5010E9402144C0182017F
:10258000F32DFF773F2E16C0280122E0420E511C8A
:10259000F801A080B18036FE03C0692D70E002C052
:1025A0006FEF7FEFC5010E94F7134C01F32DF06828
:1025B0003F2E820133FC1BC0822D90E088169906C5
:1025C000B0F4B60180E290E00E940D142A94F4CF9A
:1025D000F50137FC859137FE81915F01B60190E0EE
:1025E0000E940D1421102A9421E0821A910881146E
:1025F000910471F7E8C0843611F0893641F5F8018D
:1026000037FE07C060817181828193810C5F1F4F0B
:1026100008C060817181072E000C880B990B0E5F3A
:102620001F4FF32DFF763F2E97FF09C090958095A1
:10263000709561957F4F8F4F9F4FF0683F2E2AE036
:1026400030E0A3010E944914882E861845C08537C2
:1026500031F4232D2F7EB22E2AE030E025C0932DB9
:10266000997FB92E8F36C1F018F4883579F0B5C04E
:10267000803719F0883721F0B0C0E92FE061BE2E15
:10268000B4FE0DC0FB2DF460BF2E09C034FE0AC09D
:10269000292F2660B22E06C028E030E005C020E1D8
:1026A00030E002C020E132E0F801B7FE07C06081EF
:1026B0007181828193810C5F1F4F06C0608171819F
:1026C00080E090E00E5F1F4FA3010E944914882E06
:1026D0008618FB2DFF773F2E36FE0DC0232D2E7F53
:1026E000A22E891458F434FE0BC032FC09C0832D8D
:1026F0008E7EA82E05C0B82CA32C03C0B82C01C018
:10270000B92CA4FE0FC0FE01E80DF11D80818033BD
:1027100021F49A2D997EA92E09C0A2FE06C0B39479
:10272000B39404C08A2D867809F0B394A3FC11C039
:10273000A0FE06C0B21488F4280C922C9B180EC080
:10274000B21460F4B60180E290E00E940D14B394DC
:10275000F7CFB21418F42B1802C0982C212CA4FE29
:1027600010C0B60180E390E00E940D14A2FE17C0D5
:10277000A1FC03C088E790E002C088E590E0B601C4
:102780000CC08A2D867859F0A1FE02C08BE201C0F0
:1027900080E2A7FC8DE2B60190E00E940D1489143E
:1027A00038F4B60180E390E00E940D149A94F7CFBC
:1027B0008A94F301E80DF11D8081B60190E00E943A
:1027C0000D148110F5CF222009F442CEB60180E22B
:1027D00090E00E940D142A94F6CFF601868197812D
:1027E00002C08FEF9FEF2B96E2E10C94940FFC0157
:1027F0000590615070400110D8F7809590958E0F2C
:102800009F1F0895FC016150704001900110D8F79E
:10281000809590958E0F9F1F08950F931F93CF93D0
:10282000DF93FB01238121FD03C08FEF9FEF2CC0BD
:1028300022FF16C0468157812481358142175307F4
:1028400044F4A081B1819D012F5F3F4F31832083EC
:102850008C93268137812F5F3F4F3783268314C0A7
:102860008B01EC01FB010084F185E02D0995892B9A
:10287000E1F6D80116968D919C91179701961796BF
:102880009C938E931697CE01DF91CF911F910F915C
:102890000895FA01AA27283051F1203181F1E894F6
:1028A0006F936E7F6E5F7F4F8F4F9F4FAF4FB1E043
:1028B0003ED0B4E03CD0670F781F891F9A1FA11D3E
:1028C000680F791F8A1F911DA11D6A0F711D811D3F
:1028D000911DA11D20D009F468943F912AE0269F04
:1028E00011243019305D3193DEF6CF010895462F63
:1028F0004770405D4193B3E00FD0C9F7F6CF462F44
:102900004F70405D4A3318F0495D31FD40524193AC
:1029100002D0A9F7EACFB4E0A69597958795779569
:102920006795BA95C9F700976105710508959B01F0
:10293000AC010A2E06945795479537952795BA9579
:10294000C9F7620F731F841F951FA01D089510E023
:10295000CDE5D0E004C0FE010E94BE0F2196CE3529
:08296000D107C9F7F894FFCF7D
:1029680055006200000003032000000000001C0165
:102978008900B3006901E400C200D600000000002D
:10298800B9068900B00188004F78696D6574657271
:102998000020007269676874006C656674004250B4
:1029A8004D2E2E2E0062706D005361747572617425
:1029B800696F6E2052617465002500757000646F40
:1029C800776E0073656C656374006E6F6E65006783
:1029D8006574506572636570747300626C75654FD9
:1029E8006E007265644F6E0079656C6C6F774F6E20
:1029F80000677265656E4F6E00626C75654F66663E
:102A0800007265644F66660079656C6C6F774F6617
:102A18006600677265656E4F666600646576696311
:102A2800652861726475696E6F576974684C4344B0
:102A38004B6579706164536869656C6429007370CB
:102A48006F325261746528006865617274626561ED
:102A580074526174652800253032580066666665D0
:062A6800003B002200000B
:00000001FF
